:020000022000DC
:1060000040BF00204DB90200BB14050021B90200B9
:1060100021B9020021B9020021B9020000000000EC
:1060200000000000000000000000000071BA020043
:1060300021B9020000000000DDB9020021B9020010
:1060400091BC020015D6030091BC020091BC020075
:1060500091BC020091BC020091BC020091BC020004
:1060600091BC020091BC020091BC020091BC0200F4
:1060700091BC020091BC020091BC020091BC0200E4
:1060800091BC020091BC020091BC020091BC0200D4
:1060900091BC020091BC020091BC020091BC0200C4
:1060A00091BC020091BC020091BC020091BC0200B4
:1060B00091BC020091BC020091BC020091BC0200A4
:1060C00091BC020091BC020091BC020091BC020094
:1060D00091BC020091BC020091BC020091BC020084
:1060E00091BC020091BC020091BC020091BC020074
:1060F00091BC020091BC020091BC020091BC020064
:1061000053B94AB9002908BF00281CBF4FF0FF311E
:106110004FF0FF3000F00CB8ADF1080C6DE904CE83
:1061200000F008F8DDF804E0DDE9022304B0704770
:10613000704700BF2DE9F04786468C460846089E0A
:10614000154674461946002B40F0C2808542B2FACB
:1061500082F245D94AB1C2F1200300FA02FC2EFABC
:1061600003F3954043EA0C0C94404FEA154EA8B255
:10617000BCFBFEF8230C0EFB18CC08FB00F943EA2D
:106180000C43994528D9EB1808F1FF3704D29945FB
:1061900002D9A8F102072B44A3EB0903A4B2B3FB75
:1061A000FEFC0EFB1C330CFB00F044EA0344A0424F
:1061B00014D92C190CF1FF3304D2A04202D9ACF14E
:1061C00002032C44241A43EA07401EB1D4400023A2
:1061D00034607360BDE8F0874746DDE76346F1E76A
:1061E00092BB431B01214FEA154EAFB2B3FBFEFC3D
:1061F000200C0EFB1C330CFB07F840EA03439845C8
:1062000062D9EB180CF1FF3004D2984502D9ACF1F9
:1062100002002B44A3EB0803A4B2B3FBFEFC0EFB6D
:106220001C330CFB07F744EA0344A7424ED92C1950
:106230000CF1FF3304D2A74202D9ACF102032C4483
:10624000E41B43EA0040C0E7C2F1200320FA03F157
:10625000954090402EFA03F303434FEA154EAFB238
:10626000B1FBFEFC0EFB1C10190C0CFB07F841EAFD
:106270000041884504FA02F422D969180CF1FF3074
:1062800004D2884502D9ACF102002944A1EB0801EF
:106290009BB2B1FBFEFC0EFB1C110CFB07F743EAA3
:1062A00001439F420ED9EB180CF1FF3104D29F42FB
:1062B00002D9ACF102012B44DB1B41EA004192E719
:1062C0006046E3E76146F7E76046A3E76346B7E762
:1062D000834206D916B9002108467BE7C6E900E0EB
:1062E000F9E7B3FA83F78FB9834201D3724508D82F
:1062F000BEEB020460EB030301209C461EB90021A3
:1063000068E73846FAE7C6E9004CF8E7C7F1200C21
:10631000BB4022FA0CF41C432EFA0CF120FA0CF3C9
:10632000B84001434FEA14490EFA07F5B3FBF9F8F8
:106330001FFA84FE09FB18300B0C08FB0EFA43EA27
:1063400000439A4502FA07F240D9E31808F1FF30FA
:1063500004D29A4502D9A8F102002344A3EB0A0310
:1063600089B2B3FBF9F809FB183308FB0EFE41EACA
:1063700003418E452CD9611808F1FF3304D28E45B4
:1063800002D9A8F10203214443EA0040A0FB02988D
:10639000A1EB0E014145CE46434602D306D14D4501
:1063A00004D2B9EB020E68EB04030138002EA6D02C
:1063B000B5EB0E0261EB030101FA0CFC22FA07F3C4
:1063C0004CEA0303F940C6E9003198E74046C5E7C7
:1063D0004346D9E710F8012B11F8013B012A28BFE9
:1063E0009A42F7D0D01A7047034611F8012B03F8F0
:1063F000012B002AF9D17047034613F8012B002A1C
:10640000FBD1181A01387047F7B53E4DD5F85C310D
:10641000996811F0010121D101AA40F6034006F06C
:1064200017FC044600286AD10198C3681B789BB901
:10643000BFF35B8FD5F8D430BFF35B8F05F1D40287
:1064400003F00903BFF35B8F52E8001F42E80034FA
:10645000002CF9D1BFF35B8F19F0CEFF01AA002108
:1064600041F2030006F0F4FB0446002847D1019BEB
:10647000254EDA68D2F80100D2F8051003C6184696
:1064800019F0BAFF214601AA41F2010006F0E0FB33
:106490000446A0BB0198C3685A7885F870205A88D2
:1064A000A5F872201A7985F87120B3F80720A5F8AD
:1064B0007420B3F80530A5F8763019F09DFF214619
:1064C00001AA41F2020006F0C3FB0446B8B9019FDD
:1064D000FA68531C413218685968344603C40833BB
:1064E00093422646F7D109482BF0C4F8384619F0F4
:1064F00083FF95F87C305B060AD46FF012042046C7
:1065000003B0F0BD000000207800002080000020D3
:1065100001AA002142F2030006F09AFB044600287B
:10652000EDD1019BB64EDA68D2F80100D2F8051021
:1065300003C6184619F060FF214601AA42F2020084
:1065400006F086FB04460028D9D1019CE368B3F825
:10655000012091B249B1D97839B1A5F80421DA788E
:10656000114606F1280038F033F8204619F044FFB0
:1065700095F87C6016F0200618D1022140F66D4097
:1065800006F00AFB0446002800F0CC8002210C3003
:106590002EF08CF90123037046702146324640F6F6
:1065A0006D4006F055FB04460028A8D195F89C30B4
:1065B0001F0712D501AA002142F21C0006F048FB79
:1065C000044600289BD10198C368D3F80120D3F872
:1065D0000530C5E9382319F00FFF95F8D8309E062D
:1065E00024D50DF1020168462BF03AFB0446002841
:1065F00085D1042142F2240006F0CEFA0646002896
:1066000000F0908004210C302EF050F9BDF80030DD
:106610000380BDF8023043802246314642F2240016
:1066200006F016FB044600287FF469AF95F8D830D1
:106630005C0610D501AA002142F22A0006F008FBF0
:10664000044600287FF45BAF0198C3685B7885F847
:10665000203119F0D1FE082142F2010006F09CFA27
:10666000044600285ED008210C302EF01FF995F862
:10667000D81011F0400F024640F2022308BF032356
:1066800088074CBF43F02C0043F00C0095F8D9303C
:106690008F0648BF40F0400013F0090F95F8A23074
:1066A00018BF40F4006003F00603CE0748BF40F077
:1066B0001000062B08BF40F4C07000212BF041F9F8
:1066C0002146002242F2010006F0C2FA04460028E8
:1066D0007FF415AF95F87C30B5F80411980624D4F2
:1066E000C9B901AA41F2050006F0B2FA0446002831
:1066F0007FF405AFB5F80431019C4BB9E368B3F8FA
:106700000120A5F804219A883E48114637F060FF21
:10671000204619F071FE082140F6014006F03CFACF
:10672000044638B96FF06804E9E60029F3D16FF048
:106730000404E4E608210C302EF0B8F895F8D830BF
:10674000D907024653BF4FF000512BA1D1E90001F8
:106750002D482BF0F6F82146002240F6014006F0C5
:1067600077FA044600287FF4CAAE014601AA4FF624
:10677000014006F06DFA044620BB019819F03CFE7A
:10678000214601AA4FF6024006F062FA0446C8B953
:106790000198C368B3F80130A5F8C13019F02CFE98
:1067A00095F8C1305B070DD501AA21464FF603408D
:1067B00006F04EFA30B90198C3685B7885F8C030AE
:1067C00019F01AFE2BF0A4FC044600287FF497AEC3
:1067D00008F05EFA044600287FF491AEEB79002BB6
:1067E0003FF48DAE082109482BF016F806F000FDA5
:1067F00085E600BFAFF30080908800020080002093
:10680000D80000200801002010880002D4000020D9
:106810002DE9F843D0E90C35D0F82C805C193034E0
:10682000A0450F46164619D81D4DA3FB05011AA316
:10683000D3E90023FFF764FC0346A4EB0800A0FBA8
:10684000050123F07F4414A3D3E90023FFF758FC8C
:1068500020F07F403C603060BDE8F883DFF8409076
:106860000DA3D3E90023A8FB0901FFF749FC044667
:1068700005F1300008A3D3E90023A0FB0901FFF7CD
:106880003FFC24F07F4420F07F403C603060BDE856
:10689000F88300BFAFF300808D49FD1A07000000A8
:1068A00000CA9A3B000000009FED097B0E4B0F4A87
:1068B0000F4983ED007B9FED087B82ED007B9FED10
:1068C000087B0C4B002281ED007B1A600EF0B4BAFD
:1068D000FFFFFFFFFF1F000000000000000000009E
:1068E0001F0000000000000080010020082400209C
:1068F00078010020D0550020002800F05F812DE9AC
:10690000F04FB54C94F86A2012F001058DB040F0BC
:10691000A68194F82500FF2300F0030084F82630B8
:1069200016F062FA94F86A00420727D494F82920F6
:1069300094F8353004EB820204EB8303D66AD3F873
:10694000388086B1A448314610F02AF833785B06C7
:1069500005D506210BF0FCFA002800F082819E4844
:10696000414610F01DF8337813F00E0F40F0B78059
:10697000236A93B10C200DB0BDE8F08F2A4604F1D4
:106980006B01C0F3C00016F09FFBFF2884F82600BF
:10699000CCD0284616F042FAC8E70DF097FB8146A6
:1069A000002800F06C810DF09DFB8246002800F06D
:1069B000638110F0EBFA0546002800F06281D0F800
:1069C00088004FF6FF732B8505F11C0B002800F0A3
:1069D0004E8105F1780105F17C020BF0C5FAB5F89E
:1069E00076307E4A23F4EF6323F0070343F4887381
:1069F00043F00103A5F876301346D2F80120C5F81C
:106A00009B21C5F8A12113F8012B9B88A5F89F3184
:106A1000A5F8A53195F89A3102F0010262F300035E
:106A200062F3410385F89A3195F8393003F03F035A
:106A300063F07F0385F8393095F88E3023F0070333
:106A400085F88E3095F83C3023F00703002785F851
:106A50003C304FF4C023C5F888312846C5E9127789
:106A6000C5F88870A5F88C706F86C5F82E7085F80B
:106A70003B702F65A5F88E71A5F8847112F06CFC3F
:106A800085F85071C5F8549110F03CFD95F894319B
:106A900060F3020385F8943110F03AFD95F89431D3
:106AA00060F3C50385F8943195F8803167F34103AD
:106AB00085F880310121284611F08AF905F1D400CA
:106AC00012F004FAC4E9189AC4F820B0C5E90577B1
:106AD0002F70ED6117F03EFB002840F0C48094F861
:106AE00024300121C3F342030DF12B008DF82B302C
:106AF0000BF0D8FB0246002862D098F8011030460F
:106B00000FF010FD31233649A360364BB4F868709E
:106B1000A0FB01010025C01841F107012CA3D3E916
:106B20000023C4E9055525706560E560FFF7E8FAC4
:106B300020610CF0C9FD00F109083FB9357805F076
:106B40000F05A5F10105B5FA85F56D0994F8240046
:106B5000236965F3000010F0010584F824004BD090
:106B6000214A0992002010600225204A204F0493F8
:106B70000BAE019305920321CDE902000694434632
:106B80000090089607972A460B950CF09FFC31461B
:106B90000DF062FBA0B9174905914AF2D833009372
:106BA000CDE90300CDE90100079708960694434616
:106BB000012203210B950CF06DFC43E00FF002BCA9
:106BC000236A002B3FF4D6AE0FF0BAFBD2E600BF2B
:106BD0008D49FD1A0700000008560020A521060077
:106BE00000CA9A3B8C49FD1AFC550020A1650300A0
:106BF0001D380300BD600300274A2848049303F2B0
:106C000047130694029591211360A7FB000301FB33
:106C10000731234B0793234B05934FF6FF730992DC
:106C2000022703930BAE1AA3D3E900230B97089610
:106C3000FFF766FA4346CDE900503A46284603215D
:106C40000CF044FC31460DF007FB0028B8D194F855
:106C50006A300120034384F86A3016F0A7F8002058
:106C600089E6122087E60FF06BFB032083E605F12F
:106C70008000C5F88800ACE648460DF02DFA0720E4
:106C800079E650460DF034FA48460DF025FAF6E75D
:106C90008D49FD1A07000000FC550020002AE784FA
:106CA0001D380300A165030070B590F824308AB048
:106CB000C3F342030D46044601210DF1230016469D
:106CC0008DF823300BF0EEFA7178024628460FF06B
:106CD00029FC1F491F4AA0FB0131981841F1070107
:106CE00019A3D3E90023FFF70BFA2369984205465D
:106CF00021D21B1A00220192174A0293174BA21AA3
:106D0000A3FB02320221920900230A4409AE099131
:106D100013490591CDE903330321D2B206960093BE
:106D200018460CF033FC31460DF096FA38B925615F
:106D300000200AB070BDFBD9C21A0023DBE70C208B
:106D40000AB070BDAFF300808D49FD1A0700000046
:106D500000CA9A3B8C49FD1A085600208988888809
:106D60001D380300000000002DE9F04F05468BB0F0
:106D70008B46012002219A46144619F0D5F80022CC
:106D80000221814601200BF03FF939494FF4D472BA
:106D900028460BF0C9F8C61CF6B2364B00953246B1
:106DA000012100200CF00AFC10F0FD0F0CD0324A3B
:106DB0003249334840F62F0328F0E2FD404080F38B
:106DC00011884FF0030002DF2E4BA4FB034820463E
:106DD00025A3D3E900234146FFF792F908950695CC
:106DE0002B690493284B20F07F47A7FB0331E01A5F
:106DF000264B07934FF00702254B059302FB071123
:106E00004FF6FE7368EB010103934FF47A7200238F
:106E1000FFF776F9CDF800B0CDE901705346324660
:106E2000012100200CF036FB10F0FD0F0CD0124AAF
:106E30001249134840F6440328F0A2FD404080F375
:106E400011884FF0030002DFB9F1000F02D10BB03F
:106E5000BDE8F08F0122022110460BB0BDE8F04FD3
:106E60000BF0D2B8AFF300808D49FD1A0700000087
:106E700010240020356F0300880606004C0706002A
:106E8000C001060000CA9A3B8D49FD1ADD6E030061
:106E9000CDC20300000000002DE9F043C469228D3B
:106EA0004FF6FF739A428DB000F088800546204669
:106EB00012F0D4FC95F82830012B00F00F81022B42
:106EC00000F00281002B00F0E18094F85071002F57
:106ED00040F0FD80E68DB4F83080002E71D1AA8C90
:106EE00008F101060023CDE90A33B6B2002A70D0BA
:106EF00094F93930002BC0F248810023A4F88A317C
:106F000095F82630D90740F1EF800023A4F88E31A0
:106F10000DF127023146204612F05AFA743000F083
:106F20004681B4F888312BB1B34240F20D819B1BEE
:106F3000A4F88831B4F884312BB1B34240F2FB801D
:106F40009B1BA4F88431258E17B9A84500F0EA8070
:106F50000135ADB294F8D13013F001065AD1DDE914
:106F60000A130A46002B40F0ED80002900F0DC8077
:106F70001E461846228DE4690694CDE90357033274
:106F8000A74D0290CDE90016D2B20121002005954F
:106F90000CF0FCFA10F0FD0F10D00DF087F98442D0
:106FA0000CD0A04AA049A14840F2155328F0E8FCB3
:106FB000404080F311884FF0030002DF0DB0BDE8C0
:106FC000F083AA8C46440023CDE90A33B6B2002AE6
:106FD0008ED195F82630DA0797D4B4F88A31002B91
:106FE00000F08280B34240F2FA809B1BA4F88A3101
:106FF000B4F88E31002B8BD09E4280F0DE809B1B3C
:107000009BB20022062BA4F88E31228600F2AC80BF
:1070100001277DE794F939206FF30003002A84F8F3
:10702000D13077DB94F87600C0F3C00100F00700A0
:1070300016F0F6FEB4F86E20B4F86C30134403F288
:10704000D51303447A4A7B480721E3FB002110460D
:1070500071A3D3E90023FFF753F8DDE90A1320F009
:107060007F4220692261904235BF161A801A0020A3
:1070700000260A46002B7FF47DAF56EA010C7FF410
:1070800079AF002850D019461E4673E794F88E3029
:1070900003F01803182B7FF418AFA18DB4F88621E4
:1070A0008B1D9A42C4BF931F5B1AB4F88211CCBFE8
:1070B0009BB21346994200F08C80A4F88231A4F868
:1070C0008431A4F8882100E73D2784F850713946BF
:1070D00020460DB0BDE8F04310F038BB0023A4F803
:1070E0008831A4F88431F0E6B4F88E31002B83D1D6
:1070F000628DB4F88C3140F2E24101FB02F242F2BF
:10710000107101FB0323013BB3FBF2F39BB2A4F824
:107110008E316FE794F87700012100F0070016F038
:1071200081FE87E73D4615E7002D4BD0002611462E
:10713000304633461EE70023A4F88431204612F07F
:10714000E7F900E7304615E70DF018F8014600288A
:107150003BD00023A4F88831238DC3801B23037107
:1071600000680CF0D5FFE5E694F939309342BFF69C
:10717000CFAEB8F1000F7FF44BAFD4F878315A0896
:10718000DB0743D4C4F87821C2E628460AAA0BA933
:1071900004F1D409FFF73CFB484611F0D9FE18B3BF
:1071A000484611F0D5FE18B300232386A5E69DF8C6
:1071B0002710204610F0CAFA00E70821204610F0F8
:1071C000C5FAFBE6002FB1D1F8E60123A4F8883117
:1071D000B0E6B4F8881100297FF477AE6FE73E215E
:1071E000204610F0B3FAE9E6FF2010F067FAD7E77F
:1071F0000246D4E91E010AF0CFFE0028D4D194F84B
:107200003C30580744BFA38D238676E642F0004207
:10721000C4F87821FCE600BF8D49FD1A0700000084
:107220009D6E030088060600B0070600C001060038
:107230008C49FD1A00CA9A3B2DE9F04F87B0CDE981
:107240000423BDF8442003780292BDF84820BDF81D
:107250004080BDF84C50468EB0F82E90B0F814B176
:10726000019104460392002B00F08E80013EB6B2DD
:10727000A368D4F80C71721B92B2002B009209DA49
:10728000E168626823F0004391422CBF7F18BF1869
:10729000A360FF1A009A638D13FB02F39BB2B3FB4A
:1072A000F8F218FB02F080B283421FFA82FA5AD237
:1072B000C01A40F2E2425E4902FB00F0A0FB01016D
:1072C00059A3D3E90023FEF71BFF20F07F400744BA
:1072D000D94494F839304D44AD1B554440F2E24650
:1072E000DB09E58506FB08F552D1524A524953485D
:1072F00040F6BA0328F044FB404080F311884FF079
:10730000030002DF0026A946029BA385039BA4F885
:107310008C3129462046A4F82A8012F095F8484B73
:10732000A18D2B44881DB3FBF5F39AB29042A4F8CB
:10733000862102D2521A063A92B2019BA4F8822107
:1073400013B10023A4F88E313B464A46314620460D
:10735000FFF70AFD94F8803143F0010384F880318F
:1073600007B0BDE8F08F08FB1231314840F2E2432C
:1073700089B203FB01F1A1FB00012BA3D3E9002398
:10738000FEF7BEFE3F1AA3E74E445E44B6B26FE777
:10739000226C0099A36CDFF898B002FB1133A36450
:1073A00016F028FF814694F87401C0F3420016F0ED
:1073B00023FF049B814406FB03F305FB09F92365C6
:1073C00009F574291F4B09F23F29A3FB09394FEA3C
:1073D000994303FB0AF02364A5EB0309A36C6A0835
:1073E0000344963A934228BF1346C4E9112300236D
:1073F000C4F87C31A0FB0B010BA3D3E90023FEF7FB
:107400007FFE114B059A3F1AA3FB0230800A06FB50
:1074100000F005A3D3E90023A0FB0B01FEF770FEEB
:1074200020F07F4670E700BF8D49FD1A070000007D
:1074300000CA9A3B8806060040020600C00106000A
:107440007FC3C90183DE1B435917B7D10000000079
:107450002DE9F04F04460B68077F1668D3F800A0AB
:10746000638CD0F81E0095B015464A7CADF84C30C0
:10747000FF2AC7F3801389460D9212908DF83F3092
:1074800072D198461A4612AB93E803000DF1400BF7
:107490001090ADF84410F8090AF1710127680A91BB
:1074A0005B460C900B9710F039F80A99002843D1ED
:1074B00096F89A310C9A0A9068F3410362F300033C
:1074C00086F89A311098BBF80430C6F8A101A6F8E6
:1074D000A531DAF87130C6F89B318B88A6F89F3158
:1074E000E38D94F83010A9722B81D4F82A306B60A8
:1074F000D4F83A30AB6105F1180094F83E300371CE
:1075000005210AF0CFFE6B7F00F03F0060F305031A
:107510006B7794F83F30C3F30401A977A18EE9811A
:10752000012803F01F0389B206D91B3303F01F03A0
:107530000B2B01D80A9A59BB0022CAF8142095F8DF
:1075400020300B9862F3000385F82030E5680126AF
:10755000214626710CF0D2FD28682E7129460CF0C8
:10756000D7FD15B0BDE8F08F0DF1400B10460DF1C1
:107570003F015A4615F0A2F99DF83F80277F08F198
:1075800002085FFA88F88DF83F8008F0010282E770
:10759000D9F800305A60E38E2B82EB8940F2E24842
:1075A00008FB03F71146638E0A93304611F060FF23
:1075B00094F83F3096F874215B0963F3430286F830
:1075C000742116F017FE0C9096F87401C0F3420077
:1075D00016F012FE0C9B184407FB00F0BA4B00F5A6
:1075E000742000F23F20A3FB00307B08800C963B08
:1075F0006862AB6294F8313008FB03F3AB63238F0E
:10760000A6F88C313946304611F01EFFAF4BB04A18
:10761000C6F890213B44B3FBF7F39AB2A6F8862153
:10762000298A881D824204DDC1F57F41FA310A446E
:1076300092B2A6F882216B68C6F87831234613F817
:107640001C2FC2F34018DA0700F104814FF4807355
:10765000A3839AF8260015F04BFE04F12B030028B3
:1076600000F0EE80626AC4F82B20228D9A800D9B78
:10767000FF2B00F0E980BDF84C301298A4F82930B7
:10768000C4F82500BBF80430A4F8233010989DF806
:107690003F30C4F81F00A377EB8963862B8AA3864B
:1076A000B6F88C31E38696F87431C3F3420384F85C
:1076B000383030460FF076FCA881E08021460B98E8
:1076C000D9F804400CF01AFDAB89E3801C23D4F8F0
:1076D00000B02371B8F1000F40F0D18084F81C8015
:1076E000214658460CF014FD95F85B00B5F8508023
:1076F000B5F85240012100F0070016F093FB444416
:1077000004F2D514DFF8D48104448346714807217C
:10771000E4FB080131230024B360746068A3D3E95B
:107720000023F460FEF7ECFC20F07F4030616D6ACE
:107730000A9A7D1BD9F80C7040F2E24303FB0277F2
:107740000221224601200AF05FFC50460FF0E4F8C7
:1077500007F2B2470246A7EB0B07A7FB0801174643
:1077600057A3D3E90023FEF7CBFCCDF804A0D9F84A
:1077700008305949009120F07F48BA1C3A3BD2B2F8
:107780002046434401210BF05BFF012800F082807A
:107790009AF82430DB076AD430460FF003FC4F4BD5
:1077A000A5FB035A044646A3D3E9002328465146C5
:1077B000FEF7A6FCD9F80830494A0792A3F13A0926
:1077C000484B069620F07F47A7FB0331E81A464B4B
:1077D000059340F2D113089333694FF0000BCDE9C4
:1077E00003B34FF0070303FB07116AEB01014FF4EA
:1077F0007A720023FEF784FC0334E4B2CDE9017011
:10780000CDF800804B462246012158460BF042FE3F
:1078100010F0FD0F0CD0354A354936484FF4E97366
:1078200028F0AEF8404080F311884FF0030002DFEB
:107830000122022110460AF0E7FB15B0BDE8F08FE7
:10784000C4F82B00988012E70022C4F82520A4F881
:10785000292017E7254A28492648F82328F090F8D8
:10786000404080F311884FF0030002DFEEE6002372
:1078700001220093184611460BF0A0FE8CE76B7FA7
:1078800043F040036B77281D14F022FE4FF00108EF
:10789000E88323E70CF00AFD82453FF479AF134AF1
:1078A0001649144840F2792328F06AF8404080F3E2
:1078B00011884FF0030002DF6AE700BFAFF30080DA
:1078C0008D49FD1A0700000083DE1B437FC3C901F9
:1078D000404B4C008C49FD1A91C2030000CA9A3BF0
:1078E00061C203008D49FD1ACDC20300380C0600A9
:1078F0004C070600C00106005C040600940C06005C
:1079000010B5334C3349002304F1FF3C14F8332005
:10791000072A02EB820E05D811F83E206FF34512BC
:1079200001F83E201CF833206FF300020CF83320DE
:107930000133082BEAD1284A284C002313700A7817
:1079400063F300020A7091F8282063F3000281F8C3
:10795000282091F8502063F3000281F8502091F81C
:10796000782063F3000281F8782091F8A02063F377
:10797000000281F8A02091F8C82063F3000281F88A
:10798000C82091F8F02063F3000281F8F02091F80C
:10799000182163F3000281F81821114A9FED0A7B38
:1079A0001370104B83ED007B0F4B236028B1BDE8B3
:1079B00010400E490E4836F0D2BEBDE810400C48CB
:1079C00036F0DBBEAFF30080FFFFFFFFFFFFFFFFDE
:1079D000FD600020BC5F002017900020CC5E0020DE
:1079E00016900020882C0020A0BB0D0009D00300B9
:1079F000582C0020000000002DE9F04F8FB00DF151
:107A000037010446DFF8E0A0DFF8E0800DF1360032
:107A10000CF0FCFB9DF836309DF837B00B930BF063
:107A200053FEDAF80060A6FB085629A3D3E9002329
:107A30000027814631462846FEF762FBCDE90777ED
:107A4000069420F07F44DAF80400234B0593A0FB52
:107A500008011FA3D3E90023FEF752FB1F4B20F0C0
:107A60007F40A4FB0331072202FB0411CDE9037020
:107A7000E81A66EB01014FF47A720023FEF740FB2F
:107A80000097CDE901404B460B985A4603210BF075
:107A900001FD10F0FD0404D06FF08B000FB0BDE8C5
:107AA000F08F0F480F4A002325F03CFD20B9DAF88B
:107AB0000C000FB0BDE8F08F9DF837209DF8360020
:107AC0000094234603210BF079FD6FF07300E5E786
:107AD0008D49FD1A070000009DD503008D49FD1A50
:107AE00070610020447B0B008861002000CA9A3B33
:107AF00038B50F4D04460BF0E7FDA9680BF0E6FD25
:107B0000696803460B48B3FBF4F4A1FB00011C4475
:107B100005A3D3E90023FEF7F3FA20F07F40844267
:107B200094BF0020012038BD8D49FD1A07000000D8
:107B30008861002000CA9A3BF0B5C468636883B0CE
:107B40000546002B63D117F07BFD002017F09EFD4A
:107B50000021084617F08CFD00222521082017F08F
:107B6000CBFD454B019301A817F0AEFD434940F210
:107B70005B6017F053FE237AC3F3420262F30613ED
:107B80002046237216F056FD15F086FC58BB637A2A
:107B90009B071FD127682E68384616F0DFF8064489
:107BA0006A6806F10901012017F080FF18F03EF81D
:107BB00020460EF0BDFE811C3246C9B2384616F092
:107BC000DBF8054670BB204616F070F888B9002037
:107BD00003B0F0BD012015F0DDF84178821C00787B
:107BE00017F004FFD6E7607A10F0030018BF0120F9
:107BF000F1E7234A2349244840F22C4327F0C0FEF2
:107C0000404080F311884FF0030002DFDFE793F874
:107C100020309A0797D01D48214617F0CFFC17F067
:107C2000B7FDD4E7164A1A49174840F2144327F023
:107C3000A7FE184B0721A5FB030301FB05310CA38D
:107C4000D3E90023FEF75CFA13490246134827F0F4
:107C500097FE404080F311884FF0030002DF104888
:107C6000214617F0ABFC17F093FD6FF08B00AFE7E8
:107C700000CA9A3B00000000D6BE898E55555500BB
:107C8000681006002C030600C001060001DF030097
:107C9000400206008D49FD1A18110600EC1006007E
:107CA00005E20300000000002DE9F041C468A2894C
:107CB0004FF6FF739A4282B000F0C780054616F077
:107CC000E1FF2B89628AE08A1A4492B21044637FF2
:107CD000A28280B2411CE1825E064FF00001618207
:107CE00004F1180100F18C8003F03F000B46A17FE6
:107CF000009004F11F0014F0A3FB0646D4E90B2307
:107D00001344D4E90D0200210244E1626163A16AD7
:107D1000A26394F872208B4228BF0B4612F0040233
:107D2000236377D017F08CFC002017F0AFFC201DE8
:107D300017F0CAFC2389A17A40F25B6043EA014153
:107D400017F06CFD304616F029F82146584817F018
:107D500035FC962017F09EFE94F85A2094F85B00AC
:107D6000C2F3C003002102F0070200F0070017F081
:107D7000BBFD204616F0E8FF27682E68384615F050
:107D8000EDFF06446A6806F10901002017F08EFE37
:107D9000804617F01FFF002017F036FF236B94F882
:107DA0005B0003F13002A36B00F00700012103EB3D
:107DB000420517F0DFFC4544054494F85B0000F0F1
:107DC0000700022824D004280CBF4FF4BC732823DA
:107DD00001211D4417F0D0FC284417F0EDFEA189C5
:107DE00003313246C9B2384615F0C6FF054698BB86
:107DF000204615F05BFFD0B9002002B0BDE8F0814D
:107E00000A4603F03F03E18B14F066FB064675E774
:107E10001823DDE7D4E917010AF0BEF8002881D164
:107E200094F8723043F0040384F872307AE7214A00
:107E30002149224840F2551327F0A2FD404080F32B
:107E400011884FF0030002DFD6E71D48214617F0E6
:107E5000B5FB17F09DFCCFE7164A1A49174840F2C8
:107E60004B1327F08DFD184B0721A5FB030301FBE6
:107E700005310DA3D3E90023FEF742F91349024669
:107E8000134827F07DFD404080F311884FF0030038
:107E900002DF1048214617F091FB17F079FC6FF0D4
:107EA0008B00AAE7AFF3008000CA9A3B00000000F5
:107EB000A1EF0300901106002C030600C00106008C
:107EC00001DF0300400206008D49FD1AE41106009F
:107ED000EC100600DDDE03002DE9F0472DED028BEE
:107EE0009FED498B4A4E84B004464FF02003EFF3D8
:107EF000118783F31288BFF36F8FD4F8C8508DB900
:107F0000022104F1E00036F073FB002843D1002386
:107F10008DED008B029304F1D00239463D4825F0E7
:107F2000DFFFE2E7D4F8CC202B68C4F8C8309542D4
:107F300008BFC4F8CC30D4F8E03043F00203C4F8F2
:107F4000E030EB6823F0040343F00103EB606B685F
:107F500087F31188BFF36F8F284698474FF02003AF
:107F6000EFF3118983F31288BFF36F8FEB689907E2
:107F700023F0010219D4EA60D4F8E03023F00203C0
:107F8000C4F8E03089F31188BFF36F8FDB05ACD400
:107F900025F086FEA9E704F1D80500220121284634
:107FA00036F02CFD0028F8D1B1E7306823F0030348
:107FB000EB600028E0D00027D0F80080BA46002807
:107FC000DAD04268954201460BD1016897B97268D0
:107FD0003160824200D1716040F808AB25F07CFA34
:107FE0003946B8F1000F0BD0D8F8002040460F46B4
:107FF0009046E4E739607268824208BF7760EBE739
:108000004246F3E7AFF30080FFFFFFFFFFFFFFFFF4
:10801000188E002040910020014825F05FBB00BF72
:108020008802002007B536F026FD4FF47A72A0FBD7
:10803000020302FB0131C00B074A40EA41401060D5
:1080400000234FF400420548CDE9002326F026F92D
:10805000002003B05DF804FBF8400020380E00203B
:10806000014B187800F03CBADE8E0020044B1A78E1
:10807000824202D01870FFF7F3BF0020704700BFA4
:10808000DE8E002008B536F0F6FC4FF47A72A0FBC5
:10809000020302FB0131084AC30B126843EA414361
:1080A0009B1A47F23052934204DDBDE8084001209C
:1080B000FFF7DCBF08BD00BFF840002008B536F070
:1080C000DAFC4FF47A72A0FB020302FB0131C00B11
:1080D000044A40EA41401060BDE808400020FFF734
:1080E000C5BF00BFF8400020014B1878704700BFA3
:1080F000DE8E0020F8B5044610B900252846F8BDEC
:108100000378002BF9D00F4E0F4FBE420FD30D4E08
:10811000BE42F2D2306836F0BEF830B13568214642
:108120002868FEF757F90028E8D00436F0E73068F1
:1081300036F0B1F818B135682B68A342DED00436AA
:10814000E3E700BFD4720600E872060070B5194C70
:10815000194D8CB00022002303A9204625F078F8A1
:1081600008B10CB070BD2B68059E5868DDE903129C
:1081700026F0F3FC0028EDDBFF238DF81830B6FA6B
:1081800086F35B0907908DF8203036F074FC4FF4CD
:108190007A72A0FB020302FB0131C00B40EA4140AE
:1081A000C90B8DE8030006ABCDE90A010FCB00F047
:1081B000B1F9CFE7B40F00201C4100201FB50A4CD5
:1081C0002468A46884420DD183F00103CDE9011233
:1081D000039306480022002301A924F0E3FF04488A
:1081E00025F07CFA04B010BD1C410020B40F002023
:1081F0000C4100201FB50023CDE90233044B8DF85C
:108200000C0001A8019326F0CFFC05B05DF804FB3B
:108210008CF80500014B036004207047FC400020EF
:1082200038B5044628B3144D2B6883421FD02BB1B8
:10823000986818B183685B6803B198470F49104B81
:108240008C4214BFED2100210422002026F09FFC67
:1082500000280DDBA0682C6048B1836809491B68C1
:1082600098472B68986883689B6803B198470020FB
:1082700038BD6FF01200FBE71C41002078F80500C4
:10828000FC400020BD81020038B5054648B90648CB
:10829000FFF7C6FF041E02DB2846FFF7ABFF2046B0
:1082A00038BD6FF01504FAE778F80500F7B50C460D
:1082B00015460D4901AA1E4627F0C0FE68B1019B74
:1082C0006BB9012C0DD1094F224639463046A847DB
:1082D000002802DD3878FFF7D7FF03B0F0BD00209B
:1082E000FBE76FF01500F8E7801C0600E00D0020AA
:1082F0000148FFF795BF00BF78F8050008B50849A9
:10830000084836F0E8F9084B01220021C3E90012C1
:1083100002200322C3E90202BDE80840FFF7E8BFDC
:108320004D8102000C410020FC400020F8B50F4DAB
:108330000F4E761B07460C4605EBC105C6F3C70674
:10834000A64201DC00200CE02A683B689A4209D171
:108350003C716B6838461B68984718B1431E012B67
:10836000F0D9F8BD01340835EAE700BF0060060027
:108370006060060000B58BB0064B074A28216846AE
:1083800026F064F805490122684602F023FE0BB08E
:108390005DF804FBC81C0600D21C0600DF8E00201E
:1083A0002DE9F8434768044600254FF001087B6833
:1083B000AB420DD82149224836F0D1F9A3681B6899
:1083C0000BB120469847398939BB0020BDE8F883B6
:1083D0003A6802EBC50352F835001979DB88D0F80A
:1083E00010C0D0F80890DCF80060DA0754BF43F4FE
:1083F000B01383F4D01323F4801208FA01FEDB07D4
:108400004CBF46EA0E0626EA0E06CCF80060D9F804
:108410000030984770B90135C9E740F2E7304FF4B2
:108420007A72002300EBC1300021FDF769FE25F0D0
:10843000B9FCCAE76FF00400C8E700BF758302000B
:108440007812002008B5074B5A784AB901221A70F1
:1084500005480022002325F0A9F9044826F0BAFBBC
:10846000002008BDDF8E002078120020BCF405003B
:1084700008B54FF4F0120023024825F0CBF900EACA
:10848000E07008BD78120020F7B50C461646114979
:1084900001AA1F4627F0D2FDB0B1019BA3B9012C60
:1084A00015D10D4D224629463846B047002806DB37
:1084B0002B780A486C7023B126F08CFB002003B0A7
:1084C000F0BD26F0A3FBF9E76FF00100F7E76FF0CE
:1084D0001500F4E7C81C0600DF8E0020BCF4050080
:1084E0001FB50023CDE90233044B8DF80C0001A821
:1084F000019326F059FB05B05DF804FBB0F80500C8
:108500000268034B9A420CBF08300020704700BF3E
:10851000B0F8050084B030B589B00CAC84E80F0029
:10852000002301930CAD084B00930FCD02AC0FC498
:1085300095E8030084E80300684626F035FB09B09F
:10854000BDE8304004B07047B4F805000268034B42
:108550009A420CBF08300020704700BFB4F80500F5
:108560001FB50023CDE90233044B8DF80C0001A8A0
:10857000019326F019FB05B05DF804FBBCF805007B
:1085800082B038B504A981E80C000546114824F0F2
:10859000C5FB0446A0B16B68012B0CD0022B05D0A3
:1085A000A3B9BDE8384002B026F05FBB26F064FBFB
:1085B00000282046F5DCBDE8384002B026F04EBB6E
:1085C0006FF00400BDE8384002B070476FF08500DE
:1085D000F8E700BFC81C060082B010B502A981E808
:1085E0000C0004460B4824F099FB78B16368022B19
:1085F00004D00020BDE8104002B0704726F03CFBDC
:108600000028CCBF002001206060F2E76FF004007A
:10861000F0E700BFC81C06000D4A52F820300133B5
:1086200042F820300B4A0123117883400B430A495A
:108630000978DBB2137023EA01030849084A097874
:1086400050780B43181A537018BF0120704700BFB1
:1086500020410020E38E0020E18E0020E28E0020E9
:10866000EE0D002010B5114A52F82030002B19DD14
:10867000013B42F820300E4A2BB91378012181408A
:1086800023EA010313700B480B4B047810780B4A54
:108690005978127820EA040010435870401A18BF25
:1086A000012010BD6FF01500FBE700BF2041002046
:1086B000E38E0020E18E0020EE0D0020E28E0020EF
:1086C000044A012312788340D8B213401B1A58423F
:1086D00058417047E38E002010B5084B084A1870C7
:1086E000084B51781C78084B1B7823EA0403184385
:1086F0005070401A18BF012010BD00BFE28E00204C
:10870000EE0D0020E18E0020E38E0020074B0022BA
:108710001A70074B074A1978074B50781B7823EAE1
:108720000103181A537018BF01207047E28E002011
:10873000E18E0020EE0D0020E38E0020A0F1E0038A
:10874000072B03D82030C0B2FFF766BF064B0622C6
:1087500013F8011F19B1013AFAD1002070471870BF
:108760000028F8D0F9E700BFF00D0020A0F1E003E9
:10877000072B10B405D820305DF8044BC0B2FFF7CA
:1087800071BF0023064A194612F8014F0133A04277
:1087900008BF1170062BF7D100205DF8044B70471D
:1087A000F00D0020A0F1E003072B03D82030C0B269
:1087B000FFF786BF064A002312F8011F884204D043
:1087C0000133062BF8D1002070470120704700BF0D
:1087D000F00D0020024B00221A605A60704700BF63
:1087E000EF0D0020B0F5805F10B510D209490023CD
:1087F00001EB4302B2F8014024B10133062BF7D15B
:10880000002010BDA2F801000028F6D0F8E76FF0B4
:108810008500F6E7E10D002030B50023074C19462E
:1088200004EB43020133B2F80150854204BF51709A
:108830009170062BF4D1002030BD00BFE10D002067
:10884000024B00221A605A609A607047E20D0020C5
:10885000074A002302EB4301B1F80110814204D022
:108860000133062BF6D1002070470120704700BF6E
:10887000E10D002000487047EE0D002000487047D1
:10888000E10D002070B500250646056000F018FBDC
:10889000044678B100F0A6FD30B900F0D9FB012301
:1088A00070603370304670BD064B1B78012BF4D0DE
:1088B0002846F5E700F096FD0028EED02346204636
:1088C000EEE700BFE48E002008B5094B1B7823B10A
:1088D000012B06D06FF0850008BDBDE8084026F0EA
:1088E00002BCFFF7C7FFBDE80840013000F05ABCEA
:1088F0004041002008B5094B1B7823B1012B06D05D
:108900006FF0850008BDBDE8084026F0F4BBFFF716
:10891000B5FFBDE80840013000F06ABC40410020CE
:1089200037B508490848094D6C4635F018FF204610
:10893000FFF7A8FF94E8030085E80300002003B0D8
:1089400030BD00BF51890200A81200204041002024
:1089500002490348012202F03DBB00BFE48E002023
:108960008C1D060082B00DF1080C0CE903001946BD
:108970009DF8003010461BB1012B05D0054A00E0E0
:10898000054A02B025F062BD019B044A02B025F001
:108990005DBD00BFAB1D0600A01D0600A41D0600A6
:1089A000034A034692E8030083E803001846704731
:1089B0004041002030B589B001AD0F4C2846FFF78B
:1089C00061FF94E80C0095E8030026F001FA80B9F5
:1089D00026F025FA95E803000A2305AA84E8030097
:1089E000FFF7C0FF94E8030003AB83E8030000F047
:1089F00023F809B030BD00BF4041002070B50C46DF
:108A000015460B4900221E4627F018FB08B9002026
:108A100070BD012C08D1074922463046A8470028DE
:108A2000F6DDFFF7C7FFF2E76FF01500F0E700BFD4
:108A3000961D0600E48E00207FB56B4683E8030098
:108A400093E80300002206AB03E90300039202A8A7
:108A5000034A029226F0A8F807B05DF804FB00BFB5
:108A60002CF905001FB528BB19B9002005B05DF829
:108A700004FB12490B6843F001029A420A60F4D0E9
:108A80004FF48073ADF8003035F0F5FF4FF47A7293
:108A9000A0FB020302FB0131C00B40EA4140C90BBD
:108AA000CDE9020104AB13E90F0005B05DF804EB5A
:108AB00000F04EB86FF01500D8E700BF5841002015
:108AC0000028024818BF0020704700BF952106000B
:108AD000032913B50C4602D9002002B010BD0028AE
:108AE000FAD101A8FFF796FB0028F5DB8442F3DA00
:108AF000019B53F82430032BEED802480C2202FBD2
:108B00000300EAE738F9050073B50F4B06460C463B
:108B100015461AB10D4A126843F8212053F8241063
:108B2000002026F0DDF958B1DDE906230021CDE96A
:108B3000002330462B46224626F0E4F9002801DDCA
:108B40006FF0850002B070BD484100205841002000
:108B500010B58AB06C4684E80F0000230593064BDD
:108B6000049394E80F000AAC04E90F0004A826F06F
:108B70001BF80AB010BD00BF68F9050084B030B51D
:108B800089B00CAC84E80F00002301930CAD084BB6
:108B900000930FCD02AC0FC495E8030084E80300F6
:108BA000684626F001F809B0BDE8304004B07047CF
:108BB00070F905000268034B9A420CBF0830002090
:108BC000704700BF70F905007FB56B4683E803006E
:108BD00093E80300002206AB03E90300039202A816
:108BE000034A029225F0E0FF07B05DF804FB00BFE6
:108BF00074F90500074B1A78074B82B0162102FB67
:108C0000013301938DF8002002AB13E9030002B099
:108C1000FFF7DABFE58E0020E68E00200249034808
:108C2000012202F0D7B900BFE58E00203F1E0600EA
:108C300008B5002004F0EEFA002802DA10F1780FEF
:108C400007D1044802F056FA0348044935F087FD7D
:108C5000002008BDE0020020D81200201D8C020078
:108C600070B503788AB004460E4607AD032B20D8B2
:108C7000DFE803F002191B1D11492846FDF7B4FB7C
:108C8000059563780493A3780393E378029323799B
:108C9000019363790093A3790A4A1E21304625F097
:108CA000D5FB0AB070BD0849E7E70849E5E7084980
:108CB000E3E7084A0A21284625F0C8FBE0E700BFA1
:108CC000521E06007B1E0600591E0600601E06008E
:108CD0006A1E0600741E060010B590B0044629F006
:108CE00010FD6946FFF7BCFF08A9204605F014FEF9
:108CF0009DF82130012B14D10B4824F0EFFC2046C5
:108D000029F0FFFC094B19780F22162313FB0123CE
:108D100007490722194436F010FA10B9054824F023
:108D2000DDFC10B010BD00BFF8020020E58E002071
:108D3000E68E0020080300202DE9F0418AB00D46A0
:108D400016461F496A4604461F4627F077F908B3BE
:108D50000098F8B10A2201A925F0CCFB019B1B78F1
:108D60005BBB162D29D1C4B2042C26D8DFF85C8059
:108D70006C432A4608EB04013846B047002806DD5C
:108D800004F10F0002A94044FFF76AFF00200AB077
:108D9000BDE8F0810B496A46204627F04FF90028CC
:108DA000F4D0009B002BF1D1012D06D106492A46B3
:108DB0003846B04700EAE070E9E76FF01500E6E7F3
:108DC0009E1E0600431E0600E58E0020E68E002053
:108DD000042808B50DD80F22162313FB00230648DC
:108DE00006490722184436F0A8F9B0FA80F0400985
:108DF00008BD0020FCE700BFE68E0020AC21060085
:108E0000014B1878FFF7E4BFE58E00202DE9F04113
:108E10000C468EB005464FF0160806A9204615FBF5
:108E200008F7FFF71DFF0D4E216807F10F02931998
:108E3000B150A2889A80A2799A7109492A4601A85C
:108E400025F030FB4246F11901A802F0C3F80548AD
:108E500024F044FC0EB0BDE8F08100BFE68E002097
:108E6000A71E06000803002010B5042888B002D908
:108E7000002008B010BD0F23162414FB00340E4B45
:108E80000E491C440722204636F057F90028EFD03F
:108E90002146002005F0EEFC04460028E8D0694693
:108EA00005F03AFD204629F04DFB9DF81C00831E7D
:108EB00058425841DDE700BFE68E0020AC21060095
:108EC000014B1878FFF7D0BFE58E0020F0B58DB0CC
:108ED000FFF796FF98B9FFF7F3FF80F001035B00FF
:108EE000DBB2214D2A7803EB0213112B09DC022B94
:108EF0002DD0102B23D0002420460DB0F0BD02232E
:108F0000EFE7202B1BD0122BF5D104F0F5FE002348
:108F10002B7004460028EFD1144F0FCF02AE0FC6BE
:108F20003B681349336003220094234602A804F0EF
:108F3000B1FE04460028DFD102232B70DBE704F0EA
:108F4000DBFE00232B7004460028D4D0D4E7074E64
:108F50000FCE07AC0FC4336823600023044900938D
:108F6000032207A8E3E700BF548F0020A0F7050005
:108F70001803002030B591B0054629F0C2FB6946C0
:108F80000446FFF76DFE08A9284605F0C5FC9DF8CC
:108F90002130012B05D1FFF733FF214618B904F02A
:108FA00023F811B030BD034B1878FFF72FFFFFF700
:108FB0008DFFF6E7E58E002030B591B00D4608A98B
:108FC000044605F0A9FC9DF82130012B0BD1204669
:108FD00029F097FB6946FFF743FE0F4B00221A70FA
:108FE0001DB1FFF773FF11B030BDFFF76FFF2046D3
:108FF00029F087FB094B19780F22162313FB012355
:1090000007490722194436F098F80028EBD10548A3
:1090100024F064FBE7E700BF548F0020E58E0020BA
:10902000E68E00200803002008B5064805F0FCFB8A
:10903000054805F0FFFD054805F016FEFFF746FF61
:10904000002008BDC4020020A802002098020020D1
:10905000014B1878704700BFE58E002010B50A4B11
:109060000A491A7816240F2314FB0234084B1C44B7
:109070000722204636F061F828B121460020BDE8DD
:10908000104005F0F7BB10BDE58E0020AC210600B6
:10909000E68E00201FB54D240294044C0194BDF8C7
:1090A000184000942AF05EFC04B010BDD31E0600E8
:1090B00007B5064B00930649064805234FF4407256
:1090C00024F012FB002003B05DF804FB78F90500E2
:1090D0004891002008130020F0B5164E164F89B0B5
:1090E000002200236946304624F0B2F8054608B154
:1090F00009B0F0BDFFF7B2FF04460028F8D01822EF
:10910000294602A836F07FF808230DEB030120461C
:109110000397CDF810D0ADF8143007F019FC0130EA
:1091200003D10221204629F093FA204629F00AFAB9
:10913000D6E700BF14100020E4F905002DE9F04146
:10914000164FDFF85C808AB001AE00220023314662
:10915000384624F07DF8054610B10AB0BDE8F0812C
:10916000FFF77CFF04460028F7D01822294604A800
:1091700036F049F80C2304A92046CDE90586ADF860
:109180001C3007F0E5FB013003D10221204629F015
:109190005FFA204629F0D6F9D7E700BFE40F002098
:1091A00034FA050037B5054640F6CD4201460023A6
:1091B0000C4823F0F7FF044678B110F10B0F09D1EA
:1091C000002200236946074824F042F82846FFF7AA
:1091D000E9FF0446204603B030BD0349034835F09B
:1091E000A7FAF7E71410002040030020081300201E
:1091F00030B5054685B040F6CD42014600230D4806
:1092000023F0D0FF044678B110F10B0F09D10022F2
:10921000002301A9074824F01BF82846FFF7E8FFC0
:109220000446204605B030BD0349044835F080FAB5
:10923000F7E700BFE40F00203003002008130020F0
:109240001FB50023CDE90233044B8DF80C0001A8B3
:10925000019325F0A9FC05B05DF804FBB0FA050008
:109260000268034B9A420CBF08300020704700BFD1
:10927000B0FA050008B500F027F9BDE8084001493B
:1092800035F056BAF803002007B5084835F003F862
:1092900048B14FF4F0120023CDE900230448002226
:1092A000002324F0FBFF03B05DF804FB0CF5050080
:1092B000700E002008B5FFF723F910B96FF0850094
:1092C00008BDFEF711FF38B10138C0B20128F5D84A
:1092D000034835F017FC01E0FFF7D6FF0020EFE769
:1092E000700E002037B5104CA5682D21EB68204684
:1092F0009847B8B92D212B696A462046984788B906
:109300000A4C00982378834204D0C0B22070FFF743
:1093100097FF38B901F030FE2378984202D0184602
:1093200001F030FE03B030BD0CF50500568F002073
:1093300008B5054834F0AFFF18B1FFF7A5FF0020CE
:1093400008BD6FF01200FBE70CF50500014B187823
:10935000704700BF568F002008B5044801F034FB69
:10936000002818BF6FF0150008BD00BFA5930200CC
:10937000014B1878704700BF060E0020084B1B7881
:109380000B2B4FF001000AD8984010F4CD6F05D197
:1093900010F4016F0CBF01200020704702207047BD
:1093A000060E00200A2808B5024613D00A4B0B49C6
:1093B0001870FFF7E3FF02280AD10B78032A08BFD1
:1093C00043F001030B70BDE80840054824F086B95E
:1093D0000023F7E708BD00BF060E0020578F0020CE
:1093E0000804002008B5FFF7C9FF022806BF034B99
:1093F0001878002000F0010008BD00BF578F002042
:1094000010B50948094C23F089FC206048B1084B8D
:1094100008494D2202F01EFE206828F09BF800202B
:1094200010BD6FF01500FBE75F1F06005C410020D8
:10943000B8FA0500651F060038B504460D46FFF76B
:1094400097FF0B280BD8DFE800F01E1E0A0A1E0645
:109450000A0A0A0A0A1EBDE8384001F07FBA4FF432
:1094600076720023094824F05DF809482146006817
:1094700000232A4628F078F8044610B1034824F067
:109480002BF8204638BD6FF01204FAE74410002094
:109490005C410020014824F01FB800BF44100020A8
:1094A00007B5064B0093064906480A234FF440725D
:1094B00024F01AF9002003B05DF804FBCCFA050093
:1094C00048940020F013002000487047F01300205B
:1094D0000149024835F02CB928040020F03F002053
:1094E00000487047F03F002007B5074883685B6875
:1094F00098474FF4A47200230448CDE9002324F0D8
:10950000CDFE03B05DF804FBD0F40500A80E0020EA
:1095100010B50446084834F0BEFE60B1074B012286
:109520001A7000F01FF830B12CF01AFA2046BDE88E
:109530001040FFF7D9BF10BDD0F40500588F0020B0
:10954000014B1878704700BF588F002008B50349B9
:10955000034835F0EDF8002008BD00BF18040020D6
:10956000F03F002070B500201CF018FA1A4D044698
:109570000146284600F0D2F8284625F0CFFD174DC9
:1095800000231A4603212DF0B6FA2146284600F0A2
:109590006FF9284625F0C4FD114D00231A4601211C
:1095A0002DF0A9FA2146284600F0F4F9284625F0C6
:1095B000B9FD064620461EF033FC00220146304627
:1095C0002EF04FFE284625F0ADFD00231A4604215B
:1095D0002DF091FA204670BD7041002068410020B6
:1095E0006041002010B504460E484FF0FF324FF0A6
:1095F000FF3323F087FE2046FFF732FE68B1047880
:10960000FFF7BCFE084B003818BF01201C705870D3
:109610000448BDE8104023F0EFBEFFF797FE044674
:10962000EEE700BF780F0020598F002010B50446E8
:10963000FFF786FF38B12046FFF7D4FFFFF750FF52
:10964000024935F075F8002010BD00BF3804002035
:109650002DE9F0431B4B1C4E1C681C4FDFF87C802F
:1096600087B0ADF8040014B907B0BDE8F0839DF8E9
:109670000520D4F804909DF804500023CDE903336D
:109680008DF814301AB1314603A8FCF7ADFE5F2DFA
:109690004FF0090209D90E4903A835F036FD03A998
:1096A000484634F089FB2468DDE7412D01D909499A
:1096B000F2E7232D01D90849EEE7052D8CBF41467D
:1096C0003946E9E778410020CA1F0600DF1F06007F
:1096D000CF1F0600D31F0600D71F0600DB1F0600A2
:1096E00073B50C4C4FF0FF324FF0FF33204623F0A0
:1096F00009FE094B1E785D78204623F07DFE8DF82B
:1097000004608DF80550019802B0BDE87040FFF785
:109710009FBF00BF780F0020598F002010B504466E
:10972000084622F063FC00232360084B60605A68FF
:109730004AB9C3E900440020FFF754FF0020FFF7B7
:10974000CFFF002010BD14605C60F4E7784100207A
:109750002DE9F04F87B04FF0FF324FF0FF331E4836
:1097600023F0D0FD1D4B1D785E681F7A93F80980A9
:109770001948DFF87CA023F03FFE194B1C684FF01E
:10978000000914B907B0BDE8F08F1022002102A82B
:10979000D4F804B0CDF8049035F035FD3DB1012D7D
:1097A0000BD001A9584634F007FB2468E9E71422DE
:1097B000514601A835F0A9FCF3E7731CB8F1000F7E
:1097C00008D02FB1074A142101A824F03FFEE8E792
:1097D000054AF8E7054AF6E7A00F0020804100207F
:1097E0008C410020E71F0600F21F0600FD1F060047
:1097F000E31F060070B586B0134E4FF0FF324FF0F6
:10980000FF3301AD304623F07DFD2846FFF7C8F851
:10981000FFF756FB0446FFF7F3FA024695E803000C
:1098200003AB83E8030082F001028DF814408DF849
:10983000152093E80700054C84E80700304606B081
:10984000BDE8704023F0D8BDA00F0020804100206B
:1098500008B5FFF775FE30B1FFF7CCFFFFF740FE0C
:10986000024934F065FF002008BD00BF4804002015
:1098700010B50446084622F0B9FB00232360084BCC
:1098800060605A6842B9C3E90044FFF7B3FF0020A3
:10989000FFF75EFF002010BD14605C60F5E700BFBD
:1098A0008C41002038B50B4D4FF0FF324FF0FF33A5
:1098B000284623F027FD25F01DFB044625F00AFB72
:1098C000FFF7FEF8044B1C7058602846BDE838408E
:1098D00023F092BD8C0F00209441002008B5FFF7C3
:1098E0002FFE30B1FFF7DEFFFFF7FAFD024934F03B
:1098F0001FFF002008BD00BF580400202DE9F043E1
:1099000085B04FF0FF324FF0FF331D4823F0FAFCD3
:109910001C4B1F785D681A48DFF87080DFF8709084
:1099200023F06AFD184B1C6814B905B0BDE8F0833C
:1099300066680DB12B7873B90023CDE900334A4630
:109940003B460821684624F081FD6946304634F0E4
:1099500033FA2468E8E70023CDE900330293ADF839
:109960000C3042462B460E21684624F06FFD6946B6
:10997000304634F021FA2468002CD6D06668D9E746
:109980008C0F0020944100209C4100200F200600F5
:109990000820060010B50446084622F027FB0023E5
:1099A0002360084B60605A6842B9C3E90044FFF77E
:1099B00079FF0020FFF7A2FF002010BD14605C605B
:1099C000F5E700BF9C41002010B5094C0A449142C4
:1099D00000D110BD11F8013B584003090001E35CC0
:1099E000C0B2434018091B01205CDBB25840EEE7CF
:1099F00016200600014B1B68184700BF68040020B2
:109A000030B585B004460D4610220021684635F079
:109A1000FAFB02238DF802302A46044B01932146BB
:109A2000684624F0CBFD05B030BD00BFF5990200BB
:109A300080B505460E461746984624F0E7F90346DA
:109A400035F0FEFBDFF81890044649F80030424636
:109A500030463946A84754F8090001F08FFF00BF8F
:109A6000080000002DE9F047058B044628079046C2
:109A700011D4022905F0070540F0CD80204625F0DD
:109A800055FE78B10138218B042811D8DFE800F0A9
:109A9000C3106D85950001290CBF45F0100545F0F8
:109AA0002005258388F31188BFF36F8FBDE8F08709
:109AB00001F0070AAA4500F0A6800027B9463E46F5
:109AC000A368002B00F0BD8041F00801218388F3DA
:109AD0001188BFF36F8FA168002900F0BB800D686B
:109AE000002900F0B780D1F8048033465246204662
:109AF000C047002D76D02B6829461D46F0E701F0BF
:109B000007035A1F012A1BD8002221F00701062B48
:109B1000276889B2C4E9002209D13B4603E0628B81
:109B2000013262831B68002BF9D141F002012183CD
:109B3000204625F0FBFD00287BD041F0200177E096
:109B4000042B0AD121F0070189B22183204625F098
:109B5000EDFD10B141F020012183218B01F0070AB6
:109B6000AA4550D00027B946AAE7236921F007018A
:109B700041F00601062DD3F8009021832DD1B9F1D3
:109B8000000F40D041F00801218388F31188BFF312
:109B90006F8F3A492046C84729E021F00701236921
:109BA00041F0040189B2042DD3F804902183E6D05A
:109BB00000273E464FF0040A82E721F0070123699F
:109BC00041F0050189B2052DD3F808902183D6D044
:109BD00000273E464FF0050A72E700273E464FF049
:109BE000060A6DE72B4687E7B9F1000FD1D14FF098
:109BF0002003EFF3118883F31288BFF36F8F238B59
:109C000023F008032383258BEA062ED525F01003C5
:109C1000238305F007056669218B002EBFF66FAF21
:109C200000232768C4E9003321F0070141F0010156
:109C30002183218B01F0070AAA454FF000097FF428
:109C40003FAF002F9BD041F00801218388F311889A
:109C5000BFF36F8F002FC7D03D6839463346524659
:109C6000204625F08FFD2F46F4E7AB067FF51AAFAF
:109C700025F02003238305F00705FFE6B1F7040074
:109C800008B504464FF02002EFF3118382F31288E7
:109C9000BFF36F8F18F058FF204602F009F9034810
:109CA00025F0BDFA01F0DAFFFCE700BF2620060030
:109CB00018F074BF2DE9F7430F4606460821C06A25
:109CC000DFF8509025F0F7FE3C68241A80463C608F
:109CD00004EA0905AC4203D8002003B0BDE8F083D4
:109CE00008236A462146304625F058FE0028F4D164
:109CF0006946304625F0E9FE40B1BDF80230BDF8B6
:109D000004203C6005EA090513441D44A4EB080443
:109D1000E0E700BF0000FFFF2DE9F047044688B0F0
:109D200000F11407384634F095FBA06A8368DB68BD
:109D30009847E06228B96FF01505284608B0BDE8DD
:109D4000F087A06A8368DB6898470368013B1F2B94
:109D5000F1D8A06A216805AA2BF015F80028EAD1ED
:109D6000A589002DE7D0069BB5FBF3F203FB125546
:109D7000002DE0D1E389012BDDD9E36A009593F84A
:109D800004904FF0FF334FF0FF32384623F0BAFA19
:109D9000E06A082125F08FFEA8460646E3891FFAEF
:109DA00085FA534508D8E389434523D1384623F043
:109DB00023FB6FF02C05C0E7A1892B04891B13FA44
:109DC00081F14A4608232046009125F035FE78B1FE
:109DD0006946204625F0F0FD08F1010800990823A6
:109DE0004A4620461FFA88F825F026FE0028DAD0D9
:109DF0000135D3E753450BD1009908234A46891B07
:109E0000204625F019FE18B96946204625F0D4FDF4
:109E100069462046FFF74EFF054618B1384623F045
:109E2000EBFA8AE7009B63604FEA13484FEA084861
:109E3000C4F80880D4E9011399420FD3082301AA7A
:109E4000204625F0ABFD05460028E7D101AB13F80D
:109E5000012B914533D10135082DF8D163681B0CD6
:109E60001B0469462046009325F0A6FDA3890099AE
:109E70004A46204625F0E0FD051ECFDB636876D01C
:109E800006EB03084FF6FF79A389CDF800801FFA8F
:109E900088F29B1B9A422ED300236168002B43D08B
:109EA000090C090400912046694625F085FD0099BA
:109EB000204625F0E6FD0546002D74D0AEE701A949
:109EC000204625F002FE626810B9921B6260B1E77D
:109ED000BDF80850BDF80610E06AC4F808802944AF
:109EE00025F0E9FD40449042A060EED1002DECD079
:109EF0006FF01C0568E0082303AA4146204625F0C0
:109F00004DFD0546002889D103A9204625F0DDFD39
:109F100030B1BDF80C304B4502D1BDF810300BB15B
:109F2000B044B1E70123B8E7204625F0AAFD054675
:109F300000287FF473AF6368264AA18913400B445D
:109F4000A3EB460363601340A360204625F0A1FE07
:109F5000B1E75B1A4A46204625F06EFD051EFFF666
:109F60005DAF08D0E26AA36812681344A360D4E925
:109F700001318B42EDD86168A38901EB46029A4218
:109F80009AD1DFF85080A26801EA08039A4293D080
:109F9000204625F076FD054600287FF43FAF636834
:109FA00003EA0803A360A389A288A3EB46039A42AD
:109FB00006D0384623F020FA012323740025BCE69E
:109FC000204625F04FFE0546384623F015FA002DB1
:109FD000F2D0B2E60000FFFF2DE9F04F1D46037CF2
:109FE00089B0044689469046002B00F0BE80C26AC4
:109FF0000821104625F05FFD29468246104625F0CF
:10A000005AFDA389A3EB8A039D42074600F2B08064
:10A010001DB1B8F1000F00F0AB806368039304AA90
:10A0200003A92046DDF80CB025F087FD0646002880
:10A0300064D1BDF810304B4505D06268039B9A424D
:10A04000EDD1E5B95AE004A9204625F03EFD0028EF
:10A05000F3D0BDF81200BDF8143075B19D420ED199
:10A060004FEA1B41090401442B464246204625F095
:10A07000B0FC002803DC064640E0002B3ED0002F59
:10A0800040D104F1140301934FF0FF320198DFF83F
:10A09000E8B04FF0FF3323F035F9E3899E4261D0F9
:10A0A000D4E90123F9188A422FD3ADF81A3006A853
:10A0B000FF238DF81E30ADF81890ADF81C5025F038
:10A0C000B2FCA1682B464246204625F080FD294679
:10A0D0008246E06A25F0EFFCA2680244A260BAF171
:10A0E000000F07D106A9204625F0ABFD002814BFBC
:10A0F0008246AA46019823F07FF95646304609B0B9
:10A10000BDE8F08F5744BFB2BBE7E06A082125F0F5
:10A11000D2FC4FF6FF73ADF8183000218DF81E30D9
:10A12000A389ADF81C10111802EA0B021A44101A88
:10A13000606006A8ADF81A1025F075FC06A9204647
:10A1400025F07FFD211D204625F036FC636803EADB
:10A150000B03A360204625F09CFD82460028C9D150
:10A1600001369AE76FF01B0AC4E76FF00C06C5E7EB
:10A170006FF01506C2E700BF0000FFFF014B036050
:10A1800000207047E0FA050070B5114B1C680D46C1
:10A19000DCB1104B196800238B4202DB6FF0010029
:10A1A00070BD224612F8106B864202D0013314466D
:10A1B000F2E7E06810B96FF01200F1E734F06BF8E5
:10A1C0000028F8D02C600020EAE76FF00C00E7E7E9
:10A1D0006C040020E0FA050070B588B005460C4616
:10A1E000C0B269461646FFF7CFFF00281BDB009878
:10A1F000C8B143680293836822680195CDE90336AC
:10A200000023CDE906230593C56825F07AFE6DB1DC
:10A210002846084901AA2AF0BAFD079808B9059B03
:10A22000236008B070BD6FF01500FAE76FF0120000
:10A23000F7E700BF05FF0400F0B40C4B0C4E5F6A5B
:10A240000C4BB34203D36FF08500F0BC70475D68E0
:10A25000BD4209D31C693CB195F802C00579AC45F3
:10A2600002D12346F0BC18472433EAE7A44100207A
:10A2700074120020501200202DE9F047134CDFF833
:10A280005080DFF8509005460E461746444503D3EC
:10A290006FF08500BDE8F0876268D9F824309A42F3
:10A2A00012D3A36983B190782979884205D13A46BF
:10A2B00031462846BDE8F04718475279012A03D1B4
:10A2C0003A463146284698472434DFE750120020AA
:10A2D00074120020A44100202DE9F0410B4CDFF85E
:10A2E000308005460E461746444502D36FF0850080
:10A2F00009E063690BB92434F6E73A46314628464B
:10A3000098470028F7D1BDE8F08100BF5012002027
:10A310007412002010B504462AF037FB10F1780FB4
:10A3200000D050B9054A204625F00EFED2F8C430C0
:10A3300023EA0003C2F8C430002010BDA44100206D
:10A34000024B00221A605A60704700BF5F42002033
:10A3500070B50B4B0B4CA34201D3002070BD196AA2
:10A360001E7F00220439D5B2AE4201D82433F2E771
:10A37000013211F832508542F5D10120EEE700BFDD
:10A38000501200207412002008B509480378C3F366
:10A3900041130A3350F823303BB100F1080200F1B9
:10A3A00010019847C043C00F08BD1846FCE700BF26
:10A3B000A441002004282DE9F14FDFF8A0900446C5
:10A3C0000F4616D001282DD1DFF88C8098F8B930CF
:10A3D00043B300F071FD1F4D4D4520D2D5F820B09C
:10A3E0004FF0000A2B7F5FFA8AF6B34204D8243577
:10A3F000F2E7FFF7A5FFE7E70BEBC6060AF1010A54
:10A4000030792AF0C2FA0246307925F09DFDD8F85D
:10A41000C430002A23EA0003C8F8C430E2DA00237B
:10A4200088F8B9300B4D4D4508D30B4B1B6A6BB107
:10A430003946204601B0BDE8F04F1847EB681BB124
:10A440003A462146284698472435ECE701B0BDE856
:10A45000F08F00BF50120020A44100207412002091
:10A4600073B5C4B263060D468DF8074007D0204689
:10A47000FFF76EFF78B10D4B93F8BA0058B10B4E51
:10A48000204655B116F0C0FBF3691BB10DF1070171
:10A4900008209847012002B070BD16F0DDFBF3697B
:10A4A000002BF7D00DF107010920F2E7A4410020AD
:10A4B00073B586788DF80060037942791C4C43EAC5
:10A4C0000223ADF80230C378304603F003038DF861
:10A4D000043025F039FDD4F8C430184205460BD0BD
:10A4E000304600F0CBFC3046FFF714FF33F093FF0B
:10A4F00010B9962023F070FC684616F061FB10F14D
:10A50000780F03D010B1002002B070BD9DF800009C
:10A5100016F0DEFB10F1780F01D00028F3D1D4F84B
:10A52000C43001202B4384F8B900C4F8C430EBE7F1
:10A53000A44100202DE9F047A34EB36904460F461D
:10A540001546FBB9237803F01F03012B00F09D8013
:10A55000022B00F0048133BB94F900002A68617873
:10A56000002834DA062912D008292BD0D9B90123C2
:10A570001370517096F8C3305B0043F00103137001
:10A5800002232AE198470028DCD100200DE06288F0
:10A59000100A011F0129844605D9072803D8716ACA
:10A5A000D2B20C781CB96FF01500BDE8F0874E7878
:10A5B000664503D19A4200F00B8101332144F0E754
:10A5C0000B780AE196F8BA301370012305E10139DE
:10A5D0000829E8D801A353F821F000BF75A60200AE
:10A5E000A7A5020083A60200A7A5020001A60200FB
:10A5F000A7A50200A7A50200A7A502000DA60200BC
:10A60000A07816F0CBFA0028BFD0CCE76388756A33
:10A6100063BBFFF795FE638886F8BA30F369002BB9
:10A62000B3D06A4903209847AFE76B78042B10D06A
:10A63000052B11D0022B04D16F796388BB4208BF70
:10A6400001202B781D442B78002BEED10028AAD0B6
:10A65000DFE795F80380F4E76388BB42F1D1B8F1F6
:10A66000000FEED12846FFF723FFEAE7FF2700207F
:10A67000B846E8E76388012B95D1002386F8C330FC
:10A6800083E76388012B8ED1F8E796F8BA30D5F8C6
:10A6900000C0002B87D0756AA38894F804E02A468E
:10A6A000107800283FF47FAF5178022904D192F846
:10A6B0000480F04500F293800244F1E78CF800201A
:10A6C0008CF80120396060E7154494E00B2A7FF490
:10A6D0006AAF00274FF0FF08C146BA4606E06B7824
:10A6E000042B0FD0052B21D02B781D442B78002B69
:10A6F000F5D1F36913B1514607209847002F7FF435
:10A7000044AF50E795F80280A38895F803909845E8
:10A71000EAD163889945E7D1B8F1070F1CD806EB59
:10A720000803AA4683F8BB900127DDE7A3884345C9
:10A73000DAD1A3784B450AD0AF78384600F09EFBBB
:10A740003846FFF7E7FDB0FA80F77F09CCE72846E7
:10A75000FFF7AEFE0746C7E7AA460027C4E794F90D
:10A7600000206378002A18DA002B7FF41CAF2479CC
:10A770002D6863060AD02046FFF7EAFD00283FF463
:10A7800012AF96F8BA30002B3FF40DAF29462046A1
:10A7900016F082FA00236B70F2E6012B08D0032B2F
:10A7A0007FF401AF6388002B7FF4FDAE012103E04D
:10A7B000618800297FF4F7AEA088FFF751FE0028DA
:10A7C0007FF4E3AEEFE600BFA44100205E4200202C
:10A7D000022829607FF4F4AE4B883B60D5E694F9FB
:10A7E000000062780028BFF671AF002A3FF466AF20
:10A7F0000A2A7FF4D8AE2A78002A3FF4D4AE6978CA
:10A8000004297FF461AFA9788B427FF45DAF072BF9
:10A8100096BF9B19002393F8BB308CF80030D4E628
:10A8200013B5164C237DF3B9E268A168019201AB20
:10A83000802025F097FB019AA3681344A360E36886
:10A840009B1AE3606BB962B12369E2889A4208DD22
:10A8500094F8C82093FBF2F102FB11330BB90123EA
:10A86000237502B010BD00231A46194680202375B7
:10A8700002B0BDE8104016F055BA00BFA441002058
:10A8800030B585B0002302460D460193002858D10B
:10A89000002935D108220B460DEB02012AF08EF873
:10A8A000002804DA802016F0AFF905B030BD2A4C3C
:10A8B000029A2260039A626004F13802A2609DF954
:10A8C0000820BDF80E302575002AC4E903550ADBBF
:10A8D000802B04D9802016F097F90020E3E713B10C
:10A8E000C4E90333E1E7FFF74FFD0028DAD0E2883F
:10A8F00023699A42D4BFE260E360FFF791FFD4E797
:10A90000154CD4E90215002D01AB04DC2AF056F8F1
:10A910000028CADAC6E72A462AF050F80028D9DB10
:10A92000019AA3681344A360E3689B1AE360002BB9
:10A93000BBD104F13803A360FFF726FD0028DCD16A
:10A94000B0E78028B1D1044BDA68002AD5D11B7D4D
:10A95000002BD2D1A9E700BFA4410020044B93F8FB
:10A96000C3300BB12AF039B86FF00C00704700BF4C
:10A97000A4410020054B064A9A62064ADA62064A5A
:10A980001A63064A58629A6100207047A441002069
:10A9900035A5020039A20200D9A2020079A2020064
:10A9A00010B5084B93F8B84034B900F0E3F830B173
:10A9B000FFF7E0FF204610BD6FF07700FBE74FF098
:10A9C000FF30F8E7A44100202DE9F341414D044652
:10A9D0006F6A41484FF0FF324FF0FF3322F092FC94
:10A9E00095F8B860002E6ED13C482C62E86116F0F4
:10A9F000B3FA16F0A1F8041E49DB00F081FA041E38
:10AA000045DB7B78012B61D1FB79002B5ED068465A
:10AA100085F8C830ADF802308DF804608DF800601C
:10AA200016F0CEF8041E32DB802768468DF80070E1
:10AA300016F0C6F8041E2ADB2949304616F078FACB
:10AA4000041E24DB2649384616F072FA041E1EDB6B
:10AA5000244CDFF89480444520D3002016F038F9C8
:10AA6000041E14DBD5F8C430802043F00103C5F880
:10AA7000C43016F02DF9041E09DBD5F8C43043F4B8
:10AA80008033C5F8C430012385F8B830002412485B
:10AA900022F0B2FC204602B0BDE8F081276A002611
:10AAA000227FF3B29A4201D82434D4E707EBC302E1
:10AAB00057F83310107916F03BFA01360028EFD022
:10AAC0004FF0FF34E3E76FF07704E0E76FF0150431
:10AAD000DDE700BFA4410020640F0020B5A3020001
:10AAE00081A80200501200207412002030B51F4BC4
:10AAF0008BB005AA03F1100518685968144603C401
:10AB00000833AB422246F7D11B7823701022002174
:10AB100001A834F078FB12220021154834F073FBB1
:10AB2000102101A82AF0B4F900281BDD0828B8BFBD
:10AB30000820093801AB0E491A18002012F8013F0D
:10AB40000AAC04EB131403F00F0328336B440130F9
:10AB500014F8144C13F8143C0C7008284B7001F1D5
:10AB60000201EBD102480BB030BD00BF4F20060000
:10AB70005B8F00202DE9F04F704C87B04FF0000B39
:10AB800000264FF0011AB0463546B14623782BB95E
:10AB90006B4B02349C42F3D1684833E06378052B59
:10ABA0001BD8DFE803F09003C8901D3B402304A8A6
:10ABB0008DF810B0ADF812308DF814B029F0D0FE39
:10ABC00040B1082304A8ADF8123029F0C9FE08B13D
:10ABD000ADF812B0BDF81230E37123781C44D5E70C
:10ABE000E378002BF9D1A3787BB108F101085FFA73
:10ABF00088F8F2E76B689C4209D02435514B9D429E
:10AC0000F8D3002007B0BDE8F08F4F4DF6E7AB68F2
:10AC1000002BEAD0414620469847E6E7002DF0D0C9
:10AC200000222B7F9A42ECD2296AA07801EBC20164
:10AC30000B79984201D00132F3E70127E07800F068
:10AC400003008DF81400207994F805C040EA0C2028
:10AC5000ADF8120094F902000028FBB228DA07F1DF
:10AC600010004FF0010C0CFA00F010EA0A0F26D188
:10AC700043F080008DF8100004A8CDE90213019282
:10AC800029F06EFEDDE90121039BC0B99DF810207B
:10AC9000A27012F0800F18BF10330A7118BFDBB218
:10ACA0004FF0010214BF9A40BA404AEA020A94E700
:10ACB0000120B84010EA0A0F01D11846DAE701373F
:10ACC000102FBBD1B7E7032E1DD1FFF70FFF0746AB
:10ACD00068B1FBF791FB102809D13846A31C07F196
:10ACE000100250F8041B43F8041B9042F9D123785A
:10ACF0006FF00201E218091B04EB5303D14213D594
:10AD00000136F6B269E7002EF1D1B9F1000F3FF438
:10AD100078AFA4EB090389F80230C3F3072389F85D
:10AD2000033089F80480EBE702F801BC13F801094D
:10AD300002F8020DE2E7A1464FE700BFC411002070
:10AD400050120020741200205012002010B5094B40
:10AD500000211A461C78844205D15C681CB1482346
:10AD600003FB012010BD0131042903F14803F1D197
:10AD70000020F7E7704200202DE9F34150F8303C05
:10AD800010F8346C1033044610D1036950F8282CA5
:10AD9000990739D5EAB913F0040304D11A461946C4
:10ADA000304625F0DFF8002344F8303C54F8303CBE
:10ADB00010330BD054E9097554F81C8C33F02BFB7D
:10ADC00000284CD02C48214633F0B2FC02B0BDE83C
:10ADD000F08150F82C1C01AB304625F0C3F810B1BF
:10ADE0006FF01503E0E7019A54F82C3C134444F843
:10ADF0002C3C54F8283C9B1A44F8283C54F8243C3A
:10AE0000134444F8243CD1E750F82C1C01AB3046E5
:10AE100016F004F80028E3D1019D54F82C3C2B4493
:10AE200044F82C3C54F8283C5B1B44F8283C54F86C
:10AE3000243C2B4444F8243C002DB4D0304616F07A
:10AE400091F8B5FBF0F303FB1055002DABD154F88E
:10AE5000283C002BA7D0304616F028F8A6E744F887
:10AE6000200CA4F1180022F037FB002DAED0424692
:10AE700039463046A847A9E7F03F002010B54FF00B
:10AE80002003EFF3118483F31288BFF36F8FFFF772
:10AE90005DFF50B14368103307D16FF08B034360FF
:10AEA00000F13401034833F043FC84F31188BFF30D
:10AEB0006F8F10BDF03F002070B50F4C04254FF090
:10AEC0002003EFF3118683F31288BFF36F8F63685B
:10AED000103307D16FF08B030848636004F134012D
:10AEE00033F026FC86F31188BFF36F8F013D04F128
:10AEF0004804E4D170BD00BF70420020F03F002044
:10AF000070B50A4C0A4E00253146204633F0E3FB6B
:10AF10000122A4F118001146013533F059FB042D2C
:10AF200004F14804F0D1002070BD00BFA44200200D
:10AF300079AD02001FB507240294044C0194BDF8BA
:10AF40001840009428F00EFD04B010BD070E00203C
:10AF500010B5084C86B024788DF81740012402946F
:10AF60000DF117040194BDF82040009428F0FAFC7C
:10AF700006B010BD0E0E0020014B1878704700BFC0
:10AF80000E0E002000B589B064288DF8070019D88E
:10AF90000E4B18221870002102A834F034F90C4B23
:10AFA00003930DF10703049302A901230020ADF8D8
:10AFB000143005F0CDFC10F1800F08BF002009B05F
:10AFC0005DF804FB6FF01500F9E700BF0E0E0020DE
:10AFD000C4FB05002DE9F0410F4B1C6805460E46E9
:10AFE0001746ACB14FF0FF324FF0FF330B4822F061
:10AFF00089F963683246D3F8088029463B462046E3
:10B00000C0470446054822F0F7F92046BDE8F08124
:10B010006FF00104F9E700BF90430020500F0020BB
:10B0200000230360044B5A6812B9C3E9000070475B
:10B0300010605860704700BF94430020014B1860B7
:10B04000704700BF9043002030B585B0002305460F
:10B05000CDE9023301904FF0FF330C484FF0FF323F
:10B0600022F050F90A4B1C684CB9284600F0CEF883
:10B070000446064822F0C0F9204605B030BD63689A
:10B0800020461B6801A998472468EDE7500F00206F
:10B09000944300201FB5CDE9010103924FF0FF3327
:10B0A0000A484FF0FF3222F02DF9094B1C682CB9E9
:10B0B000064822F0A1F9204604B010BD636820467E
:10B0C0001B6801A998472468F1E700BF500F0020D2
:10B0D00094430020024B0022C3E90022704700BFC6
:10B0E00094430020024B0022C3E90022FFF7F2BF85
:10B0F0009C43002070B51B4C1B4E0546B44212D336
:10B100001A4E1B484FF0FF324FF0FF3322F0FAF88F
:10B1100034687CB1286854F8141C143CFBF75AF9C5
:10B12000C8B16469F5E721682868FBF753F9A8B14D
:10B130001434E3E700226A61726805F114033AB936
:10B14000C6E9003300240A4822F056F9204670BDB3
:10B1500013607360F6E76FF01004F4E76FF010040B
:10B16000F4E700BFECF60500A0F705009C430020C3
:10B17000500F00202DE9F74307460C4609B1002384
:10B180000B601F4DDFF8809000264D450FD31D4BFF
:10B190001D6885B355F8148C01AA41463846143D04
:10B1A00024F04CFF10B3D6B914BB2E461EE0D5F8E0
:10B1B000008001AA4146384624F040FF50B116B93C
:10B1C00054B92E4606E031680022404624F036FF8E
:10B1D0000028F5D11435D8E7019B2360F1E73168E9
:10B1E0000022404624F02AFF0028DDD16D69D0E717
:10B1F000019B2360D9E7304603B0BDE8F08300BF70
:10B20000ECF605009C430020A0F70500F8B5184CAB
:10B21000184F06460025BC4208D3174B1C682CB3B8
:10B22000143CB6B9E368E3B96469F8E72EB9E3689A
:10B230005BB9284614340546EDE720680022314604
:10B2400024F0FCFE0028F2D1F3E79847002DF0D15E
:10B25000F0E720680022314624F0F0FE0028E1D11A
:10B26000E2E79847002D08BF0546DDE72846F8BD10
:10B27000ECF60500A0F705009C43002038B50C4D06
:10B280000C484FF0FF334FF0FF3222F03BF82B78A1
:10B290003BB9FFF727FF00F06DF8044610B9012312
:10B2A0002B700024034822F0A7F8204638BD00BFC9
:10B2B0006D8F0020500F00202DE9F047048FDFF83C
:10B2C000B0A0013498B080468946A4B200F10806C7
:10B2D000651EADB2B5F5004F47D04A2305AA2946F1
:10B2E000304624F007FE04F57F543F34A4B20746ED
:10B2F000214601230DF10B02304624F0FBFD002F07
:10B30000014603DC002803DC2C46E1E7002816DCBC
:10B31000B8F83830AB4209D142466B1E22F8383FAC
:10B320004FF4004102233046FEF756FE29463046D0
:10B3300024F07CFD2146304624F078FDE4E707F157
:10B3400060030DEB0307002307F84C3C5246CDF891
:10B35000009003AB05A80396ADF8104024F0A4FEBE
:10B360000028D1D018B0BDE8F0870020FAE700BF70
:10B37000170105007FB50123694602200193FEF7FE
:10B3800003FF044660BB02AA01A90220FEF724FFC6
:10B39000044610B110F10C0F22D10399B1F5803F92
:10B3A00023D2009A002394681846084484421AD392
:10B3B0000133082BF9D10E4DA982EB825368AB60A3
:10B3C0002846D368EB6324F040FF044640B9094E99
:10B3D0006E602846FFF724FE28466E60FFF72EFEBB
:10B3E000204604B070BD9BB2E5E76FF02004F7E79C
:10B3F000A4430020D0040020014B1868704700BF10
:10B40000E4040020F0B5082289B025F0F6F8CB6AF4
:10B4100003930B6B04934B6B05938B6B0693CB6B76
:10B42000079313466A460C46064600271146104607
:10B43000CDE90177009724F0EFFF3146054630460D
:10B4400024F0EAFF216B0391616B0491A16B0591DC
:10B45000E16B0544CDE906171046114624F0DCFFE8
:10B4600031460544304624F0D7FF0544206A009059
:10B47000606A0190A06A0290A06B0690E06B079052
:10B480003046CDE90477039724F0C6FF0544606A8F
:10B490000090A06A0190E06A0290A06BD4F834C0DA
:10B4A0000490E06BCDF80CC0CDE9050C206A079044
:10B4B000304624F0B1FF0544E06A0090206B019013
:10B4C000606B0290206A0690A06A07903046CDE932
:10B4D0000477039725F0C4F8236B0093636B019303
:10B4E000A36B0293E36B0393636A0693E36A079388
:10B4F0002D1A0823304625F0B3F8636B0093A36B35
:10B500000193E36B0293236A0393636A0493A36A30
:10B51000CDE90537236B07932D1A0823304625F014
:10B520009FF8A36B0093E36BCDE90137636A039344
:10B53000A36A0493E36A0593636B07932D1A0823A8
:10B54000304625F08DF82D1A10D40D4C35B908224F
:10B550003146204625F05DF801280FD00823224609
:10B560003146304625F07CF82D1AEFE7044A0823CF
:10B570003146304624F050FF2D18F8D409B0F0BD04
:10B5800018FC05000449431E0F3013F8012F8A5C94
:10B590001A708342F9D1704778200600F0B5264E24
:10B5A00007460C460FCE8DB001AD0FC50FCE0FC5AF
:10B5B00096E8070085E807003846002F38D0002CB1
:10B5C00038D0381F2146024610344B780D781B04C2
:10B5D00043EA0563CD782B438D78043143EA052394
:10B5E0008C4242F8043FF0D1144C04218A070369CD
:10B5F00016D1C3F30742A55C1A0EA25C42EA0562AB
:10B60000C3F30725DBB2655DE35C42EA054242EA2B
:10B61000032221F0030330336B4453F82C3C534096
:10B6200050F8042F013153402C290361DED1012051
:10B630000DB0F0BD2046FBE7B4F70500782006000A
:10B6400030BFFFF7FDBF00BF114B124A2DE9F0419B
:10B65000D518DFF84C80013DB5FBF3F55D430E4B8B
:10B6600008EB0304013CB4FBF3F403FB04540E1B8E
:10B6700007460A49304633F09EFD701942460021C4
:10B68000083E33F0C0FD7E6704F10800BDE8F0819C
:10B69000010000000000000004000000A0F7050009
:10B6A00008000000044B99689869884203D0034958
:10B6B0004FF080520A607047F08D002004ED00E0EA
:10B6C000134B9A6A12F0007F9A6A14BF1E201D2045
:10B6D00012F0807F9A6A18BF1F2012F4002F9A6A16
:10B6E00018BF212012F4802F9A6A18BF222012F46A
:10B6F000003F9A6A18BF232012F4803F9A6A6FEACB
:10B7000002426FEA12429A6218BF2420704700BFBB
:10B7100000ED00E010B5194B0246986A9C6A10F4DF
:10B72000805F14BF1720162014F4006F9C6A18BFA6
:10B730001820A40509D5986B986A000404D51AB19D
:10B740009A6A22F400429A6219200C4B9A6A12F407
:10B75000806F9A6A18BF1A20D2050CD49B6A13F422
:10B76000005F18BF1C20054A936A43F47F4393622D
:10B7700000230B7010BD1B20F5E700BF00ED00E0BB
:10B7800010B51C4B0246986A9C6A10F0100F14BF4B
:10B790001120102014F0080F9C6A18BF1220A40773
:10B7A00009D5586B986A000604D51AB19A6A22F036
:10B7B00080029A6213200F4B9A6A12F0010F9A6A64
:10B7C00018BF142012F0200F9A6A18BF1520D40653
:10B7D00058BF9B6A074B9A6A920642BF5A6A22F484
:10B7E00000525A629A6A42F0FF029A6200230B707A
:10B7F00010BD00BF00ED00E070B5444B5B689CB02D
:10B800000646C3F30803002585F31188BFF36F8F45
:10B8100002F07F40B0F17F4F11D102F00C000828F8
:10B820000DD010074CBF0E4601250022033B8DF8BA
:10B830000720032B05D8DFE803F01E5C60592E4675
:10B84000F3E700249DF807309BB96822314602A82F
:10B8500033F0B1FC099B002D53D0C3F3080222B989
:10B860006FEA53236FEA4323099302A9204625F088
:10B870001EFE1CB070BD254BDA6A9107E1D4DA6A6E
:10B88000002ADEDBDA6A5200DBD55A69B16942F47C
:10B8900080725A61BFF34F8FBFF36F8F5A6931F8CF
:10B8A000021C22F480725A61BFF34F8FBFF36F8F77
:10B8B0004DF60272914209D09A6AD2B242B10DF1AC
:10B8C00007010120FFF75CFF0446BBE73468B9E7D6
:10B8D0009A6A12F47F4F05D00DF107010120FFF79E
:10B8E00019FFF1E79B6AB3F5803FAAD3FFF7E8FEA3
:10B8F000EAE70DF107010020E4E70DF10701002060
:10B90000EDE723F4FF7323F00103ADE700ED00E062
:10B91000024A536943F010035361704700ED00E0A1
:10B92000EFF30880EFF3098101B57246FFF764FF7A
:10B9300001BD00BF044800232021C2180133302B71
:10B9400082F80013F9D1704700E100E0FEF7B0F98A
:10B95000202080F3118808484FF40061401880F3DC
:10B960000988EFF314800221084380F31488BFF3A1
:10B970006F8F00F0D5F8000000B20020084B9B68E4
:10B9800083420BD1EFF3058343B1064B5A6842F073
:10B9900080525A605A6A22F400425A6222F03CBA3B
:10B9A000F08D002000ED00E0094A0A49936809681B
:10B9B000D967094998674B6843F080534B6000236F
:10B9C00083F31188BFF36F8F9368D86F704700BF00
:10B9D000F08D0020E01A060000ED00E021498A68A1
:10B9E00082F8C1E04FF030001044EFF3098C80E89A
:10B9F000F01F1EF0100F03D102F1800080EC108ABE
:10BA0000202080F31288BFF36F8F174F4FF000662E
:10BA10008A698A603E604FF0740414192068134CE0
:10BA2000206092F9C1E0906F0023936780F3118842
:10BA30001EF0100F03D00023E1EE103A03E002F1F4
:10BA4000800090EC108AEFF3148323F0040383F357
:10BA50001488BFF36F8F02F1300090E8F01F8CF371
:10BA600009887047F08D002004ED00E0E4430020D9
:10BA70001EF0040F0CBFEFF30880EFF3098081691B
:10BA800011F8021C0229FFD001B525F012FD01BDFD
:10BA900040B2002807DB044A4109012300F01F00DF
:10BAA000834042F82130704700E100E040B20028B6
:10BAB0000CDB4309064900F01F00203301228240BD
:10BAC00041F82320BFF34F8FBFF36F8F704700BF44
:10BAD00000E100E0054B420900F01F0053F822206E
